{
  "contractName": "PrivateSaleAndVesting",
  "abi": [
    {
      "inputs": [
        {
          "internalType": "address",
          "name": "paymentToken_",
          "type": "address"
        },
        {
          "internalType": "uint256",
          "name": "rate_",
          "type": "uint256"
        },
        {
          "internalType": "address payable",
          "name": "foundationAddress_",
          "type": "address"
        }
      ],
      "stateMutability": "nonpayable",
      "type": "constructor"
    },
    {
      "anonymous": false,
      "inputs": [
        {
          "indexed": true,
          "internalType": "address",
          "name": "previousOwner",
          "type": "address"
        },
        {
          "indexed": true,
          "internalType": "address",
          "name": "newOwner",
          "type": "address"
        }
      ],
      "name": "OwnershipTransferred",
      "type": "event"
    },
    {
      "anonymous": false,
      "inputs": [
        {
          "indexed": false,
          "internalType": "uint256",
          "name": "_newRate",
          "type": "uint256"
        }
      ],
      "name": "RateChanged",
      "type": "event"
    },
    {
      "anonymous": false,
      "inputs": [
        {
          "indexed": false,
          "internalType": "uint256",
          "name": "_extension",
          "type": "uint256"
        }
      ],
      "name": "TokenSaleExtended",
      "type": "event"
    },
    {
      "anonymous": false,
      "inputs": [
        {
          "indexed": false,
          "internalType": "uint256",
          "name": "_startTime",
          "type": "uint256"
        }
      ],
      "name": "TokenSaleStarted",
      "type": "event"
    },
    {
      "anonymous": false,
      "inputs": [
        {
          "indexed": false,
          "internalType": "address",
          "name": "_vestedBy",
          "type": "address"
        },
        {
          "indexed": false,
          "internalType": "uint256",
          "name": "_vested",
          "type": "uint256"
        },
        {
          "indexed": false,
          "internalType": "uint256",
          "name": "_totalVesting",
          "type": "uint256"
        }
      ],
      "name": "TokensBoughtAndVested",
      "type": "event"
    },
    {
      "anonymous": false,
      "inputs": [
        {
          "indexed": false,
          "internalType": "uint256",
          "name": "_amount",
          "type": "uint256"
        },
        {
          "indexed": false,
          "internalType": "uint256",
          "name": "_inVesting",
          "type": "uint256"
        }
      ],
      "name": "TokensWithdrawn",
      "type": "event"
    },
    {
      "anonymous": false,
      "inputs": [
        {
          "indexed": false,
          "internalType": "address[]",
          "name": "accounts_",
          "type": "address[]"
        }
      ],
      "name": "Whitelisted",
      "type": "event"
    },
    {
      "inputs": [],
      "name": "owner",
      "outputs": [
        {
          "internalType": "address",
          "name": "",
          "type": "address"
        }
      ],
      "stateMutability": "view",
      "type": "function"
    },
    {
      "inputs": [],
      "name": "renounceOwnership",
      "outputs": [],
      "stateMutability": "nonpayable",
      "type": "function"
    },
    {
      "inputs": [
        {
          "internalType": "address",
          "name": "newOwner",
          "type": "address"
        }
      ],
      "name": "transferOwnership",
      "outputs": [],
      "stateMutability": "nonpayable",
      "type": "function"
    },
    {
      "stateMutability": "payable",
      "type": "receive"
    },
    {
      "inputs": [
        {
          "internalType": "uint256",
          "name": "_daysBeforeStart",
          "type": "uint256"
        },
        {
          "internalType": "uint256",
          "name": "_daysToLast",
          "type": "uint256"
        },
        {
          "internalType": "uint256",
          "name": "daysBeforeWithdrawal_",
          "type": "uint256"
        }
      ],
      "name": "startSale",
      "outputs": [],
      "stateMutability": "nonpayable",
      "type": "function"
    },
    {
      "inputs": [
        {
          "internalType": "uint256",
          "name": "_daysToExtendSaleBy",
          "type": "uint256"
        }
      ],
      "name": "extendSale",
      "outputs": [],
      "stateMutability": "nonpayable",
      "type": "function"
    },
    {
      "inputs": [],
      "name": "buyAndVest",
      "outputs": [],
      "stateMutability": "payable",
      "type": "function"
    },
    {
      "inputs": [],
      "name": "withdraw",
      "outputs": [],
      "stateMutability": "nonpayable",
      "type": "function"
    },
    {
      "inputs": [
        {
          "internalType": "address[]",
          "name": "_accounts",
          "type": "address[]"
        }
      ],
      "name": "whitelistForSale",
      "outputs": [
        {
          "internalType": "bool",
          "name": "",
          "type": "bool"
        }
      ],
      "stateMutability": "nonpayable",
      "type": "function"
    },
    {
      "inputs": [],
      "name": "withdrawBNB",
      "outputs": [],
      "stateMutability": "nonpayable",
      "type": "function"
    },
    {
      "inputs": [],
      "name": "withdrawLeftOverTokens",
      "outputs": [],
      "stateMutability": "nonpayable",
      "type": "function"
    },
    {
      "inputs": [
        {
          "internalType": "uint256",
          "name": "rate_",
          "type": "uint256"
        }
      ],
      "name": "setRate",
      "outputs": [],
      "stateMutability": "nonpayable",
      "type": "function"
    },
    {
      "inputs": [
        {
          "internalType": "address payable",
          "name": "foundationAddress_",
          "type": "address"
        }
      ],
      "name": "setFoundationAddress",
      "outputs": [],
      "stateMutability": "nonpayable",
      "type": "function"
    },
    {
      "inputs": [],
      "name": "getTimeBeforeStart",
      "outputs": [
        {
          "internalType": "uint256",
          "name": "",
          "type": "uint256"
        }
      ],
      "stateMutability": "view",
      "type": "function"
    },
    {
      "inputs": [],
      "name": "getRemainingTime",
      "outputs": [
        {
          "internalType": "uint256",
          "name": "",
          "type": "uint256"
        }
      ],
      "stateMutability": "view",
      "type": "function"
    },
    {
      "inputs": [],
      "name": "isInitialized",
      "outputs": [
        {
          "internalType": "bool",
          "name": "",
          "type": "bool"
        }
      ],
      "stateMutability": "view",
      "type": "function"
    },
    {
      "inputs": [
        {
          "internalType": "address",
          "name": "_vestor",
          "type": "address"
        }
      ],
      "name": "getVestingDetail",
      "outputs": [
        {
          "components": [
            {
              "internalType": "uint256",
              "name": "_withdrawalTime",
              "type": "uint256"
            },
            {
              "internalType": "uint256",
              "name": "_withdrawalAmount",
              "type": "uint256"
            },
            {
              "internalType": "uint256",
              "name": "_lockDuration",
              "type": "uint256"
            }
          ],
          "internalType": "struct PrivateSaleAndVesting.VestingDetail",
          "name": "_detail",
          "type": "tuple"
        }
      ],
      "stateMutability": "view",
      "type": "function"
    },
    {
      "inputs": [],
      "name": "getRate",
      "outputs": [
        {
          "internalType": "uint256",
          "name": "",
          "type": "uint256"
        }
      ],
      "stateMutability": "view",
      "type": "function"
    },
    {
      "inputs": [],
      "name": "getTokensBought",
      "outputs": [
        {
          "internalType": "uint256",
          "name": "",
          "type": "uint256"
        }
      ],
      "stateMutability": "view",
      "type": "function"
    }
  ],
  "bytecode": "0x60806040523480156200001157600080fd5b50604051620030cd380380620030cd83398181016040528101906200003791906200029f565b620000576200004b620000e960201b60201c565b620000f160201b60201c565b82600160006101000a81548173ffffffffffffffffffffffffffffffffffffffff021916908373ffffffffffffffffffffffffffffffffffffffff1602179055508160038190555080600260006101000a81548173ffffffffffffffffffffffffffffffffffffffff021916908373ffffffffffffffffffffffffffffffffffffffff160217905550505050620002fb565b600033905090565b60008060009054906101000a900473ffffffffffffffffffffffffffffffffffffffff169050816000806101000a81548173ffffffffffffffffffffffffffffffffffffffff021916908373ffffffffffffffffffffffffffffffffffffffff1602179055508173ffffffffffffffffffffffffffffffffffffffff168173ffffffffffffffffffffffffffffffffffffffff167f8be0079c531659141344cd1fd0a4f28419497f9722a3daafe3b4186f6b6457e060405160405180910390a35050565b600080fd5b600073ffffffffffffffffffffffffffffffffffffffff82169050919050565b6000620001e782620001ba565b9050919050565b620001f981620001da565b81146200020557600080fd5b50565b6000815190506200021981620001ee565b92915050565b6000819050919050565b62000234816200021f565b81146200024057600080fd5b50565b600081519050620002548162000229565b92915050565b60006200026782620001ba565b9050919050565b62000279816200025a565b81146200028557600080fd5b50565b60008151905062000299816200026e565b92915050565b600080600060608486031215620002bb57620002ba620001b5565b5b6000620002cb8682870162000208565b9350506020620002de8682870162000243565b9250506040620002f18682870162000288565b9150509250925092565b612dc2806200030b6000396000f3fe60806040526004361061010d5760003560e01c80637849881811610095578063efb98bcf11610064578063efb98bcf1461030c578063f2fde38b14610337578063f4134b4b14610360578063f41377ca1461039d578063fc476426146103c65761011c565b806378498818146102625780638da5cb5b1461028d578063dfbe6b3d146102b8578063e3417f8d146102f55761011c565b8063392e53cd116100dc578063392e53cd146101b35780633ccfd60b146101de5780633dd5435d146101f5578063679aefce14610220578063715018a61461024b5761011c565b806304d742dc146101215780631d111d131461014a5780631f1886e41461016157806334fcf4371461018a5761011c565b3661011c5761011a6103d0565b005b600080fd5b34801561012d57600080fd5b5061014860048036038101906101439190611a20565b610714565b005b34801561015657600080fd5b5061015f61085f565b005b34801561016d57600080fd5b5061018860048036038101906101839190611a73565b610967565b005b34801561019657600080fd5b506101b160048036038101906101ac9190611a73565b610acf565b005b3480156101bf57600080fd5b506101c8610bec565b6040516101d59190611abb565b60405180910390f35b3480156101ea57600080fd5b506101f3610c03565b005b34801561020157600080fd5b5061020a610fda565b6040516102179190611ae5565b60405180910390f35b34801561022c57600080fd5b50610235611009565b6040516102429190611ae5565b60405180910390f35b34801561025757600080fd5b50610260611013565b005b34801561026e57600080fd5b5061027761109b565b6040516102849190611ae5565b60405180910390f35b34801561029957600080fd5b506102a26110a5565b6040516102af9190611b41565b60405180910390f35b3480156102c457600080fd5b506102df60048036038101906102da9190611b88565b6110ce565b6040516102ec9190611c06565b60405180910390f35b34801561030157600080fd5b5061030a611145565b005b34801561031857600080fd5b5061032161149d565b60405161032e9190611ae5565b60405180910390f35b34801561034357600080fd5b5061035e60048036038101906103599190611b88565b6114cc565b005b34801561036c57600080fd5b5061038760048036038101906103829190611d7a565b6115c4565b6040516103949190611abb565b60405180910390f35b3480156103a957600080fd5b506103c460048036038101906103bf9190611e01565b6117b9565b005b6103ce6103d0565b005b600b60006103dc6118e9565b73ffffffffffffffffffffffffffffffffffffffff1673ffffffffffffffffffffffffffffffffffffffff16815260200190815260200160002060009054906101000a900460ff16610463576040517f08c379a000000000000000000000000000000000000000000000000000000000815260040161045a90611eb1565b60405180910390fd5b600042905060006004541415801561047d57506004548110155b6104bc576040517f08c379a00000000000000000000000000000000000000000000000000000000081526004016104b390611f43565b60405180910390fd5b8060055411610500576040517f08c379a00000000000000000000000000000000000000000000000000000000081526004016104f790611faf565b60405180910390fd5b600061050a6118e9565b90506000600354670de0b6b3a7640000346105259190611ffe565b61052f9190612087565b9050600160009054906101000a900473ffffffffffffffffffffffffffffffffffffffff1673ffffffffffffffffffffffffffffffffffffffff166370a08231306040518263ffffffff1660e01b815260040161058c9190611b41565b602060405180830381865afa1580156105a9573d6000803e3d6000fd5b505050506040513d601f19601f820116820180604052508101906105cd91906120cd565b816007546105db91906120fa565b111561061c576040517f08c379a0000000000000000000000000000000000000000000000000000000008152600401610613906121c2565b60405180910390fd5b6000600a60008473ffffffffffffffffffffffffffffffffffffffff1673ffffffffffffffffffffffffffffffffffffffff168152602001908152602001600020905081816001015461066f91906120fa565b81600101819055506006544261068591906120fa565b81600001819055506301e133804261069d91906120fa565b8160020181905550816007546106b391906120fa565b600781905550816008546106c791906120fa565b6008819055507fbd4b74ee80c5ef4f18c6ab000b7e180212b09ac342e31772b17fe2224e1e0ccd838260010154600754604051610706939291906121e2565b60405180910390a150505050565b600260009054906101000a900473ffffffffffffffffffffffffffffffffffffffff1673ffffffffffffffffffffffffffffffffffffffff166107556118e9565b73ffffffffffffffffffffffffffffffffffffffff16146107ab576040517f08c379a00000000000000000000000000000000000000000000000000000000081526004016107a29061228b565b60405180910390fd5b600042905062015180846107bf9190611ffe565b816107ca91906120fa565b60048190555062015180836107df9190611ffe565b6004546107ec91906120fa565b60058190555062015180826108019190611ffe565b6006819055506001600960006101000a81548160ff0219169083151502179055507fa94faa77f36735e91d258de2eedff73d452f282d6aa66c55c2a06719e51d0f5b816040516108519190611ae5565b60405180910390a150505050565b600260009054906101000a900473ffffffffffffffffffffffffffffffffffffffff1673ffffffffffffffffffffffffffffffffffffffff166108a06118e9565b73ffffffffffffffffffffffffffffffffffffffff16146108f6576040517f08c379a00000000000000000000000000000000000000000000000000000000081526004016108ed9061228b565b60405180910390fd5b6000479050600260009054906101000a900473ffffffffffffffffffffffffffffffffffffffff1673ffffffffffffffffffffffffffffffffffffffff166108fc829081150290604051600060405180830381858888f19350505050158015610963573d6000803e3d6000fd5b5050565b600260009054906101000a900473ffffffffffffffffffffffffffffffffffffffff1673ffffffffffffffffffffffffffffffffffffffff166109a86118e9565b73ffffffffffffffffffffffffffffffffffffffff16146109fe576040517f08c379a00000000000000000000000000000000000000000000000000000000081526004016109f59061228b565b60405180910390fd5b600454421015610a43576040517f08c379a0000000000000000000000000000000000000000000000000000000008152600401610a3a90612343565b60405180910390fd5b426005541015610a72576201518081610a5c9190611ffe565b42610a6791906120fa565b600581905550610a95565b6201518081610a819190611ffe565b600554610a8e91906120fa565b6005819055505b7f057ef55123d60d20f8e2ebda78fcfd24dfcad0647ca443a91e71941deb00bc9281604051610ac49190611ae5565b60405180910390a150565b600260009054906101000a900473ffffffffffffffffffffffffffffffffffffffff1673ffffffffffffffffffffffffffffffffffffffff16610b106118e9565b73ffffffffffffffffffffffffffffffffffffffff1614610b66576040517f08c379a0000000000000000000000000000000000000000000000000000000008152600401610b5d9061228b565b60405180910390fd5b60008111610ba9576040517f08c379a0000000000000000000000000000000000000000000000000000000008152600401610ba0906123d5565b60405180910390fd5b806003819055507f595a30f13a69b616c4d568e2a2b7875fdfe86e4300a049953c76ee278f8f3f10600354604051610be19190611ae5565b60405180910390a150565b6000600960009054906101000a900460ff16905090565b6000624f1a00600554610c1691906120fa565b9050804211610c5a576040517f08c379a0000000000000000000000000000000000000000000000000000000008152600401610c5190612467565b60405180910390fd5b6000600a6000610c686118e9565b73ffffffffffffffffffffffffffffffffffffffff1673ffffffffffffffffffffffffffffffffffffffff168152602001908152602001600020905060008082600001541415610ced576040517f08c379a0000000000000000000000000000000000000000000000000000000008152600401610ce4906124f9565b60405180910390fd5b81600201544210610d045781600101549050610d24565b606460068360010154610d179190611ffe565b610d219190612087565b90505b8160000154421015610d6b576040517f08c379a0000000000000000000000000000000000000000000000000000000008152600401610d629061258b565b60405180910390fd5b80600160009054906101000a900473ffffffffffffffffffffffffffffffffffffffff1673ffffffffffffffffffffffffffffffffffffffff166370a08231306040518263ffffffff1660e01b8152600401610dc79190611b41565b602060405180830381865afa158015610de4573d6000803e3d6000fd5b505050506040513d601f19601f82011682018060405250810190610e0891906120cd565b1015610e49576040517f08c379a0000000000000000000000000000000000000000000000000000000008152600401610e4090612643565b60405180910390fd5b600160009054906101000a900473ffffffffffffffffffffffffffffffffffffffff1673ffffffffffffffffffffffffffffffffffffffff1663a9059cbb610e8f6118e9565b836040518363ffffffff1660e01b8152600401610ead929190612663565b6020604051808303816000875af1158015610ecc573d6000803e3d6000fd5b505050506040513d601f19601f82011682018060405250810190610ef091906126b8565b610f2f576040517f08c379a0000000000000000000000000000000000000000000000000000000008152600401610f2690612757565b60405180910390fd5b808260010154610f3f9190612777565b826001018190555081600201544210610f59576000610f68565b60065442610f6791906120fa565b5b826000018190555081600201544210610f8657600082600201819055505b80600754610f949190612777565b6007819055507f66b83f1531e8e33a4c404458c73c34e03a1233541a8bbe6127f85660b414d3c781600754604051610fcd9291906127ab565b60405180910390a1505050565b600080429050806004541015610ff4576000915050611006565b806004546110029190612777565b9150505b90565b6000600354905090565b61101b6118e9565b73ffffffffffffffffffffffffffffffffffffffff166110396110a5565b73ffffffffffffffffffffffffffffffffffffffff161461108f576040517f08c379a000000000000000000000000000000000000000000000000000000000815260040161108690612820565b60405180910390fd5b61109960006118f1565b565b6000600854905090565b60008060009054906101000a900473ffffffffffffffffffffffffffffffffffffffff16905090565b6110d66119b5565b600a60008373ffffffffffffffffffffffffffffffffffffffff1673ffffffffffffffffffffffffffffffffffffffff16815260200190815260200160002060405180606001604052908160008201548152602001600182015481526020016002820154815250509050919050565b600260009054906101000a900473ffffffffffffffffffffffffffffffffffffffff1673ffffffffffffffffffffffffffffffffffffffff166111866118e9565b73ffffffffffffffffffffffffffffffffffffffff16146111dc576040517f08c379a00000000000000000000000000000000000000000000000000000000081526004016111d39061228b565b60405180910390fd5b600554421015611221576040517f08c379a0000000000000000000000000000000000000000000000000000000008152600401611218906128b2565b60405180910390fd5b6000600160009054906101000a900473ffffffffffffffffffffffffffffffffffffffff1673ffffffffffffffffffffffffffffffffffffffff166370a08231306040518263ffffffff1660e01b815260040161127e9190611b41565b602060405180830381865afa15801561129b573d6000803e3d6000fd5b505050506040513d601f19601f820116820180604052508101906112bf91906120cd565b116112ff576040517f08c379a00000000000000000000000000000000000000000000000000000000081526004016112f690612944565b60405180910390fd5b600160009054906101000a900473ffffffffffffffffffffffffffffffffffffffff1673ffffffffffffffffffffffffffffffffffffffff1663a9059cbb600260009054906101000a900473ffffffffffffffffffffffffffffffffffffffff16600160009054906101000a900473ffffffffffffffffffffffffffffffffffffffff1673ffffffffffffffffffffffffffffffffffffffff166370a08231306040518263ffffffff1660e01b81526004016113bb9190611b41565b602060405180830381865afa1580156113d8573d6000803e3d6000fd5b505050506040513d601f19601f820116820180604052508101906113fc91906120cd565b6040518363ffffffff1660e01b81526004016114199291906129c3565b6020604051808303816000875af1158015611438573d6000803e3d6000fd5b505050506040513d601f19601f8201168201806040525081019061145c91906126b8565b61149b576040517f08c379a000000000000000000000000000000000000000000000000000000000815260040161149290612a5e565b60405180910390fd5b565b6000804290508060055410156114b75760009150506114c9565b806005546114c59190612777565b9150505b90565b6114d46118e9565b73ffffffffffffffffffffffffffffffffffffffff166114f26110a5565b73ffffffffffffffffffffffffffffffffffffffff1614611548576040517f08c379a000000000000000000000000000000000000000000000000000000000815260040161153f90612820565b60405180910390fd5b600073ffffffffffffffffffffffffffffffffffffffff168173ffffffffffffffffffffffffffffffffffffffff1614156115b8576040517f08c379a00000000000000000000000000000000000000000000000000000000081526004016115af90612af0565b60405180910390fd5b6115c1816118f1565b50565b6000600260009054906101000a900473ffffffffffffffffffffffffffffffffffffffff1673ffffffffffffffffffffffffffffffffffffffff166116076118e9565b73ffffffffffffffffffffffffffffffffffffffff161461165d576040517f08c379a00000000000000000000000000000000000000000000000000000000081526004016116549061228b565b60405180910390fd5b60005b825181101561177857600073ffffffffffffffffffffffffffffffffffffffff1683828151811061169457611693612b10565b5b602002602001015173ffffffffffffffffffffffffffffffffffffffff1614156116f3576040517f08c379a00000000000000000000000000000000000000000000000000000000081526004016116ea90612bb1565b60405180910390fd5b6001600b600085848151811061170c5761170b612b10565b5b602002602001015173ffffffffffffffffffffffffffffffffffffffff1673ffffffffffffffffffffffffffffffffffffffff16815260200190815260200160002060006101000a81548160ff021916908315150217905550808061177090612bd1565b915050611660565b507fc1c703b4c00725dc366c1a5d49f08a7661064e6112e10c497e7bd82db87f2325826040516117a89190612cd8565b60405180910390a160019050919050565b6117c16118e9565b73ffffffffffffffffffffffffffffffffffffffff166117df6110a5565b73ffffffffffffffffffffffffffffffffffffffff1614611835576040517f08c379a000000000000000000000000000000000000000000000000000000000815260040161182c90612820565b60405180910390fd5b600073ffffffffffffffffffffffffffffffffffffffff168173ffffffffffffffffffffffffffffffffffffffff1614156118a5576040517f08c379a000000000000000000000000000000000000000000000000000000000815260040161189c90612d6c565b60405180910390fd5b80600260006101000a81548173ffffffffffffffffffffffffffffffffffffffff021916908373ffffffffffffffffffffffffffffffffffffffff16021790555050565b600033905090565b60008060009054906101000a900473ffffffffffffffffffffffffffffffffffffffff169050816000806101000a81548173ffffffffffffffffffffffffffffffffffffffff021916908373ffffffffffffffffffffffffffffffffffffffff1602179055508173ffffffffffffffffffffffffffffffffffffffff168173ffffffffffffffffffffffffffffffffffffffff167f8be0079c531659141344cd1fd0a4f28419497f9722a3daafe3b4186f6b6457e060405160405180910390a35050565b60405180606001604052806000815260200160008152602001600081525090565b6000604051905090565b600080fd5b600080fd5b6000819050919050565b6119fd816119ea565b8114611a0857600080fd5b50565b600081359050611a1a816119f4565b92915050565b600080600060608486031215611a3957611a386119e0565b5b6000611a4786828701611a0b565b9350506020611a5886828701611a0b565b9250506040611a6986828701611a0b565b9150509250925092565b600060208284031215611a8957611a886119e0565b5b6000611a9784828501611a0b565b91505092915050565b60008115159050919050565b611ab581611aa0565b82525050565b6000602082019050611ad06000830184611aac565b92915050565b611adf816119ea565b82525050565b6000602082019050611afa6000830184611ad6565b92915050565b600073ffffffffffffffffffffffffffffffffffffffff82169050919050565b6000611b2b82611b00565b9050919050565b611b3b81611b20565b82525050565b6000602082019050611b566000830184611b32565b92915050565b611b6581611b20565b8114611b7057600080fd5b50565b600081359050611b8281611b5c565b92915050565b600060208284031215611b9e57611b9d6119e0565b5b6000611bac84828501611b73565b91505092915050565b611bbe816119ea565b82525050565b606082016000820151611bda6000850182611bb5565b506020820151611bed6020850182611bb5565b506040820151611c006040850182611bb5565b50505050565b6000606082019050611c1b6000830184611bc4565b92915050565b600080fd5b6000601f19601f8301169050919050565b7f4e487b7100000000000000000000000000000000000000000000000000000000600052604160045260246000fd5b611c6f82611c26565b810181811067ffffffffffffffff82111715611c8e57611c8d611c37565b5b80604052505050565b6000611ca16119d6565b9050611cad8282611c66565b919050565b600067ffffffffffffffff821115611ccd57611ccc611c37565b5b602082029050602081019050919050565b600080fd5b6000611cf6611cf184611cb2565b611c97565b90508083825260208201905060208402830185811115611d1957611d18611cde565b5b835b81811015611d425780611d2e8882611b73565b845260208401935050602081019050611d1b565b5050509392505050565b600082601f830112611d6157611d60611c21565b5b8135611d71848260208601611ce3565b91505092915050565b600060208284031215611d9057611d8f6119e0565b5b600082013567ffffffffffffffff811115611dae57611dad6119e5565b5b611dba84828501611d4c565b91505092915050565b6000611dce82611b00565b9050919050565b611dde81611dc3565b8114611de957600080fd5b50565b600081359050611dfb81611dd5565b92915050565b600060208284031215611e1757611e166119e0565b5b6000611e2584828501611dec565b91505092915050565b600082825260208201905092915050565b7f56654669546f6b656e566573743a204f6e6c792077686974656c69737465642060008201527f6164647265737365732063616e2063616c6c20746869732066756e6374696f6e602082015250565b6000611e9b604083611e2e565b9150611ea682611e3f565b604082019050919050565b60006020820190508181036000830152611eca81611e8e565b9050919050565b7f56654669546f6b656e566573743a2053616c65206e6f7420737461727465642060008201527f7965740000000000000000000000000000000000000000000000000000000000602082015250565b6000611f2d602383611e2e565b9150611f3882611ed1565b604082019050919050565b60006020820190508181036000830152611f5c81611f20565b9050919050565b7f56654669546f6b656e566573743a2053616c652068617320656e646564000000600082015250565b6000611f99601d83611e2e565b9150611fa482611f63565b602082019050919050565b60006020820190508181036000830152611fc881611f8c565b9050919050565b7f4e487b7100000000000000000000000000000000000000000000000000000000600052601160045260246000fd5b6000612009826119ea565b9150612014836119ea565b9250817fffffffffffffffffffffffffffffffffffffffffffffffffffffffffffffffff048311821515161561204d5761204c611fcf565b5b828202905092915050565b7f4e487b7100000000000000000000000000000000000000000000000000000000600052601260045260246000fd5b6000612092826119ea565b915061209d836119ea565b9250826120ad576120ac612058565b5b828204905092915050565b6000815190506120c7816119f4565b92915050565b6000602082840312156120e3576120e26119e0565b5b60006120f1848285016120b8565b91505092915050565b6000612105826119ea565b9150612110836119ea565b9250827fffffffffffffffffffffffffffffffffffffffffffffffffffffffffffffffff0382111561214557612144611fcf565b5b828201905092915050565b7f56654669546f6b656e566573743a2043616e6e6f742062757920616e6420766560008201527f737420617320616c6c6f636174696f6e206973206e6f7420656e6f7567680000602082015250565b60006121ac603e83611e2e565b91506121b782612150565b604082019050919050565b600060208201905081810360008301526121db8161219f565b9050919050565b60006060820190506121f76000830186611b32565b6122046020830185611ad6565b6122116040830184611ad6565b949350505050565b7f56654669546f6b656e566573743a204f6e6c7920666f756e646174696f6e206160008201527f6464726573732063616e2063616c6c20746869732066756e6374696f6e000000602082015250565b6000612275603d83611e2e565b915061228082612219565b604082019050919050565b600060208201905081810360008301526122a481612268565b9050919050565b7f56654669546f6b656e566573743a2053616c65206d757374206265207374617260008201527f746564206265666f72652074686520656e6420646174652063616e206265206560208201527f7874656e64656400000000000000000000000000000000000000000000000000604082015250565b600061232d604783611e2e565b9150612338826122ab565b606082019050919050565b6000602082019050818103600083015261235c81612320565b9050919050565b7f56654669546f6b656e566573743a2052617465206d757374206265206772656160008201527f746572207468616e203000000000000000000000000000000000000000000000602082015250565b60006123bf602a83611e2e565b91506123ca82612363565b604082019050919050565b600060208201905081810360008301526123ee816123b2565b9050919050565b7f56654669546f6b656e566573743a20546f6b656e207769746864726177616c2060008201527f6265666f72652032206d6f6e746820636c696666000000000000000000000000602082015250565b6000612451603483611e2e565b915061245c826123f5565b604082019050919050565b6000602082019050818103600083015261248081612444565b9050919050565b7f56654669546f6b656e566573743a205769746864726177616c206e6f7420706f60008201527f737369626c650000000000000000000000000000000000000000000000000000602082015250565b60006124e3602683611e2e565b91506124ee82612487565b604082019050919050565b60006020820190508181036000830152612512816124d6565b9050919050565b7f56654669546f6b656e566573743a204974206973206e6f742074696d6520666f60008201527f72207769746864726177616c0000000000000000000000000000000000000000602082015250565b6000612575602c83611e2e565b915061258082612519565b604082019050919050565b600060208201905081810360008301526125a481612568565b9050919050565b7f56654669546f6b656e566573743a204e6f7420656e6f75676820746f6b656e7360008201527f20746f2073656c6c2e20506c65617365207265616368206f757420746f20746860208201527f6520666f756e646174696f6e20636f6e6365726e696e67207468697300000000604082015250565b600061262d605c83611e2e565b9150612638826125ab565b606082019050919050565b6000602082019050818103600083015261265c81612620565b9050919050565b60006040820190506126786000830185611b32565b6126856020830184611ad6565b9392505050565b61269581611aa0565b81146126a057600080fd5b50565b6000815190506126b28161268c565b92915050565b6000602082840312156126ce576126cd6119e0565b5b60006126dc848285016126a3565b91505092915050565b7f56654669546f6b656e566573743a20436f756c64206e6f74207472616e73666560008201527f7220746f6b656e73000000000000000000000000000000000000000000000000602082015250565b6000612741602883611e2e565b915061274c826126e5565b604082019050919050565b6000602082019050818103600083015261277081612734565b9050919050565b6000612782826119ea565b915061278d836119ea565b9250828210156127a05761279f611fcf565b5b828203905092915050565b60006040820190506127c06000830185611ad6565b6127cd6020830184611ad6565b9392505050565b7f4f776e61626c653a2063616c6c6572206973206e6f7420746865206f776e6572600082015250565b600061280a602083611e2e565b9150612815826127d4565b602082019050919050565b60006020820190508181036000830152612839816127fd565b9050919050565b7f56654669546f6b656e566573743a204c656674206f76657220746f6b656e732060008201527f63616e206f6e6c792062652077697468647261776e2061667465722073616c65602082015250565b600061289c604083611e2e565b91506128a782612840565b604082019050919050565b600060208201905081810360008301526128cb8161288f565b9050919050565b7f56654669546f6b656e566573743a204e6f206c656674206f76657220746f6b6560008201527f6e7320746f207769746864726177000000000000000000000000000000000000602082015250565b600061292e602e83611e2e565b9150612939826128d2565b604082019050919050565b6000602082019050818103600083015261295d81612921565b9050919050565b6000819050919050565b600061298961298461297f84611b00565b612964565b611b00565b9050919050565b600061299b8261296e565b9050919050565b60006129ad82612990565b9050919050565b6129bd816129a2565b82525050565b60006040820190506129d860008301856129b4565b6129e56020830184611ad6565b9392505050565b7f56654669546f6b656e566573743a20436f756c64206e6f74207769746864726160008201527f77206c656674206f76657220746f6b656e730000000000000000000000000000602082015250565b6000612a48603283611e2e565b9150612a53826129ec565b604082019050919050565b60006020820190508181036000830152612a7781612a3b565b9050919050565b7f4f776e61626c653a206e6577206f776e657220697320746865207a65726f206160008201527f6464726573730000000000000000000000000000000000000000000000000000602082015250565b6000612ada602683611e2e565b9150612ae582612a7e565b604082019050919050565b60006020820190508181036000830152612b0981612acd565b9050919050565b7f4e487b7100000000000000000000000000000000000000000000000000000000600052603260045260246000fd5b7f56654669546f6b656e566573743a2043616e6e6f742077686974656c6973742060008201527f61207a65726f2061646472657373000000000000000000000000000000000000602082015250565b6000612b9b602e83611e2e565b9150612ba682612b3f565b604082019050919050565b60006020820190508181036000830152612bca81612b8e565b9050919050565b6000612bdc826119ea565b91507fffffffffffffffffffffffffffffffffffffffffffffffffffffffffffffffff821415612c0f57612c0e611fcf565b5b600182019050919050565b600081519050919050565b600082825260208201905092915050565b6000819050602082019050919050565b612c4f81611b20565b82525050565b6000612c618383612c46565b60208301905092915050565b6000602082019050919050565b6000612c8582612c1a565b612c8f8185612c25565b9350612c9a83612c36565b8060005b83811015612ccb578151612cb28882612c55565b9750612cbd83612c6d565b925050600181019050612c9e565b5085935050505092915050565b60006020820190508181036000830152612cf28184612c7a565b905092915050565b7f56654669546f6b656e566573743a20536574207a65726f20616464726573732060008201527f617320666f756e646174696f6e20616464726573730000000000000000000000602082015250565b6000612d56603583611e2e565b9150612d6182612cfa565b604082019050919050565b60006020820190508181036000830152612d8581612d49565b905091905056fea2646970667358221220d2ea46d7645620641e7aa302a5be992b1ac936af7a29646e599178818b19f38864736f6c634300080a0033",
  "immutableReferences": {},
  "source": "pragma solidity ^0.8.0;\n\nimport '@openzeppelin/contracts/token/ERC20/IERC20.sol';\nimport '@openzeppelin/contracts/access/Ownable.sol';\nimport '@openzeppelin/contracts/utils/Context.sol';\n\ncontract PrivateSaleAndVesting is Context, Ownable {\n  struct VestingDetail {\n    uint256 _withdrawalTime;\n    uint256 _withdrawalAmount;\n    uint256 _lockDuration;\n  }\n\n  IERC20 _paymentToken;\n  address payable _foundationAddress;\n  uint256 _rate;\n  uint256 _startTime;\n  uint256 _endTime;\n  uint256 _daysBeforeWithdrawal;\n  uint256 _totalVested;\n  uint256 _tokensBought;\n  bool _initialized;\n\n  mapping(address => VestingDetail) _vestingDetails;\n  mapping(address => bool) _whiteListed;\n\n  modifier onlyFoundationAddress() {\n    require(\n      _msgSender() == _foundationAddress,\n      'VeFiTokenVest: Only foundation address can call this function'\n    );\n    _;\n  }\n\n  modifier onlyWhiteListed() {\n    require(\n      _whiteListed[_msgSender()],\n      'VeFiTokenVest: Only whitelisted addresses can call this function'\n    );\n    _;\n  }\n\n  event TokenSaleStarted(uint256 _startTime);\n  event TokenSaleExtended(uint256 _extension);\n  event TokensBoughtAndVested(\n    address _vestedBy,\n    uint256 _vested,\n    uint256 _totalVesting\n  );\n  event TokensWithdrawn(uint256 _amount, uint256 _inVesting);\n  event RateChanged(uint256 _newRate);\n  event Whitelisted(address[] accounts_);\n\n  constructor(\n    address paymentToken_,\n    uint256 rate_,\n    address payable foundationAddress_\n  ) Ownable() {\n    _paymentToken = IERC20(paymentToken_);\n    _rate = rate_;\n    _foundationAddress = foundationAddress_;\n  }\n\n  /** @dev Start the token sale. Can only be called by the foundation\n   *  @param _daysToLast The number of days the token sale should last\n   *  @param daysBeforeWithdrawal_ The number of days before tokens can be withdrawn after vesting\n   */\n  function startSale(\n    uint256 _daysBeforeStart,\n    uint256 _daysToLast,\n    uint256 daysBeforeWithdrawal_\n  ) external onlyFoundationAddress {\n    uint256 _time = block.timestamp;\n    _startTime = _time + (_daysBeforeStart * 1 days);\n    _endTime = _startTime + (_daysToLast * 1 days);\n    _daysBeforeWithdrawal = (daysBeforeWithdrawal_ * 1 days);\n    _initialized = true;\n    emit TokenSaleStarted(_time);\n  }\n\n  /** @dev Extend the token sale\n   *  @param _daysToExtendSaleBy The number of days to extend the end date by\n   */\n  function extendSale(uint256 _daysToExtendSaleBy)\n    external\n    onlyFoundationAddress\n  {\n    require(\n      block.timestamp >= _startTime,\n      'VeFiTokenVest: Sale must be started before the end date can be extended'\n    );\n\n    if (_endTime < block.timestamp)\n      _endTime = block.timestamp + (_daysToExtendSaleBy * 1 days);\n    else _endTime = _endTime + (_daysToExtendSaleBy * 1 days);\n\n    emit TokenSaleExtended(_daysToExtendSaleBy);\n  }\n\n  /** @dev Function to be called by intending vestor. Amount of BNB to spend is sent to this function\n   */\n  function buyAndVest() public payable onlyWhiteListed {\n    uint256 _currentTime = block.timestamp;\n\n    require(\n      _startTime != 0 && _currentTime >= _startTime,\n      'VeFiTokenVest: Sale not started yet'\n    );\n    require(_endTime > _currentTime, 'VeFiTokenVest: Sale has ended');\n\n    address _vestor = _msgSender();\n    uint256 _vestable = (msg.value * 10**18) / _rate;\n\n    require(\n      (_totalVested + _vestable) <= _paymentToken.balanceOf(address(this)),\n      'VeFiTokenVest: Cannot buy and vest as allocation is not enough'\n    );\n\n    VestingDetail storage vestingDetail = _vestingDetails[_vestor];\n    vestingDetail._withdrawalAmount =\n      vestingDetail._withdrawalAmount +\n      _vestable;\n    vestingDetail._withdrawalTime = block.timestamp + _daysBeforeWithdrawal;\n    vestingDetail._lockDuration = block.timestamp + 365 days;\n    _totalVested = _totalVested + _vestable;\n    _tokensBought = _tokensBought + _vestable;\n\n    emit TokensBoughtAndVested(\n      _vestor,\n      vestingDetail._withdrawalAmount,\n      _totalVested\n    );\n  }\n\n  /** @dev Withdrawal function. Can only be called after vesting period has elapsed\n   */\n  function withdraw() external {\n    uint256 _cliff = _endTime + (60 * 1 days);\n    require(\n      block.timestamp > _cliff,\n      'VeFiTokenVest: Token withdrawal before 2 month cliff'\n    );\n    VestingDetail storage vestingDetail = _vestingDetails[_msgSender()];\n    uint256 _withdrawable;\n\n    require(\n      vestingDetail._withdrawalTime != 0,\n      'VeFiTokenVest: Withdrawal not possible'\n    );\n\n    if (block.timestamp >= vestingDetail._lockDuration) {\n      _withdrawable = vestingDetail._withdrawalAmount;\n    } else {\n      _withdrawable = (vestingDetail._withdrawalAmount * 6) / 100;\n    }\n\n    require(\n      (block.timestamp >= vestingDetail._withdrawalTime),\n      'VeFiTokenVest: It is not time for withdrawal'\n    );\n    require(\n      _paymentToken.balanceOf(address(this)) >= _withdrawable,\n      'VeFiTokenVest: Not enough tokens to sell. Please reach out to the foundation concerning this'\n    );\n    require(\n      _paymentToken.transfer(_msgSender(), _withdrawable),\n      'VeFiTokenVest: Could not transfer tokens'\n    );\n\n    vestingDetail._withdrawalAmount =\n      vestingDetail._withdrawalAmount -\n      _withdrawable;\n    vestingDetail._withdrawalTime = block.timestamp <\n      vestingDetail._lockDuration\n      ? block.timestamp + _daysBeforeWithdrawal\n      : 0;\n\n    if (block.timestamp >= vestingDetail._lockDuration)\n      vestingDetail._lockDuration = 0;\n\n    _totalVested = _totalVested - _withdrawable;\n\n    emit TokensWithdrawn(_withdrawable, _totalVested);\n  }\n\n  /** @dev Function to whitelist addresses. Can only be called by foundation address\n   *  @param _accounts The array of addresses to whitelist\n   */\n  function whitelistForSale(address[] memory _accounts)\n    external\n    onlyFoundationAddress\n    returns (bool)\n  {\n    for (uint256 i = 0; i < _accounts.length; i++) {\n      require(\n        _accounts[i] != address(0),\n        'VeFiTokenVest: Cannot whitelist a zero address'\n      );\n      _whiteListed[_accounts[i]] = true;\n    }\n    emit Whitelisted(_accounts);\n    return true;\n  }\n\n  /** @dev Function to withdraw BNB deposited during sale. Can only be called by the foundation\n   */\n  function withdrawBNB() external onlyFoundationAddress {\n    uint256 _balance = address(this).balance;\n    _foundationAddress.transfer(_balance);\n  }\n\n  /** @dev Function to withdraw left-over tokens. Can only be called by the foundation and after the sale has ended.\n   */\n  function withdrawLeftOverTokens() external onlyFoundationAddress {\n    require(\n      block.timestamp >= _endTime,\n      'VeFiTokenVest: Left over tokens can only be withdrawn after sale'\n    );\n    require(\n      _paymentToken.balanceOf(address(this)) > 0,\n      'VeFiTokenVest: No left over tokens to withdraw'\n    );\n    require(\n      _paymentToken.transfer(\n        _foundationAddress,\n        _paymentToken.balanceOf(address(this))\n      ),\n      'VeFiTokenVest: Could not withdraw left over tokens'\n    );\n  }\n\n  /** @dev Set the rate for the sale\n   *  @param rate_ The rate to be set\n   */\n  function setRate(uint256 rate_) external onlyFoundationAddress {\n    require(rate_ > 0, 'VeFiTokenVest: Rate must be greater than 0');\n    _rate = rate_;\n\n    emit RateChanged(_rate);\n  }\n\n  /** @dev Set foundation address. Can only be called by contract owner\n   *  @param foundationAddress_ address to set\n   */\n  function setFoundationAddress(address payable foundationAddress_)\n    external\n    onlyOwner\n  {\n    require(\n      foundationAddress_ != address(0),\n      'VeFiTokenVest: Set zero address as foundation address'\n    );\n    _foundationAddress = foundationAddress_;\n  }\n\n  /** @dev Get time remaining before sale starts\n   */\n  function getTimeBeforeStart() public view returns (uint256) {\n    uint256 _currentTime = block.timestamp;\n\n    if (_startTime < _currentTime) return 0;\n\n    return _startTime - _currentTime;\n  }\n\n  /** @dev Get time remaining before sale ends\n   */\n  function getRemainingTime() public view returns (uint256) {\n    uint256 _currentTime = block.timestamp;\n\n    if (_endTime < _currentTime) return 0;\n\n    return _endTime - _currentTime;\n  }\n\n  /** @dev Returns a boolean value indication whether the counter has been started or not\n   */\n  function isInitialized() external view returns (bool) {\n    return _initialized;\n  }\n\n  /** @dev Get vesting detail of address\n   *  @param _vestor Address for which to view vesting detail\n   */\n  function getVestingDetail(address _vestor)\n    external\n    view\n    returns (VestingDetail memory _detail)\n  {\n    return _vestingDetails[_vestor];\n  }\n\n  /** @dev Returns the presently set rate\n   */\n  function getRate() external view returns (uint256) {\n    return _rate;\n  }\n\n  /** @dev Returns the amount of tokens bought\n   */\n  function getTokensBought() external view returns (uint256) {\n    return _tokensBought;\n  }\n\n  receive() external payable {\n    buyAndVest();\n  }\n}\n",
  "sourcePath": "/home/kingsley/Code-Projects/Token-Vesting/contracts/PrivateSaleAndVesting.sol",
  "compiler": {
    "name": "solc",
    "version": "0.8.10+commit.fc410830.Emscripten.clang"
  },
  "schemaVersion": "3.4.3",
  "updatedAt": "2022-01-11T01:53:34.581Z",
  "devdoc": {
    "kind": "dev",
    "methods": {
      "buyAndVest()": {
        "details": "Function to be called by intending vestor. Amount of BNB to spend is sent to this function"
      },
      "extendSale(uint256)": {
        "details": "Extend the token sale",
        "params": {
          "_daysToExtendSaleBy": "The number of days to extend the end date by"
        }
      },
      "getRate()": {
        "details": "Returns the presently set rate"
      },
      "getRemainingTime()": {
        "details": "Get time remaining before sale ends"
      },
      "getTimeBeforeStart()": {
        "details": "Get time remaining before sale starts"
      },
      "getTokensBought()": {
        "details": "Returns the amount of tokens bought"
      },
      "getVestingDetail(address)": {
        "details": "Get vesting detail of address",
        "params": {
          "_vestor": "Address for which to view vesting detail"
        }
      },
      "isInitialized()": {
        "details": "Returns a boolean value indication whether the counter has been started or not"
      },
      "owner()": {
        "details": "Returns the address of the current owner."
      },
      "renounceOwnership()": {
        "details": "Leaves the contract without owner. It will not be possible to call `onlyOwner` functions anymore. Can only be called by the current owner. NOTE: Renouncing ownership will leave the contract without an owner, thereby removing any functionality that is only available to the owner."
      },
      "setFoundationAddress(address)": {
        "details": "Set foundation address. Can only be called by contract owner",
        "params": {
          "foundationAddress_": "address to set"
        }
      },
      "setRate(uint256)": {
        "details": "Set the rate for the sale",
        "params": {
          "rate_": "The rate to be set"
        }
      },
      "startSale(uint256,uint256,uint256)": {
        "details": "Start the token sale. Can only be called by the foundation",
        "params": {
          "_daysToLast": "The number of days the token sale should last",
          "daysBeforeWithdrawal_": "The number of days before tokens can be withdrawn after vesting"
        }
      },
      "transferOwnership(address)": {
        "details": "Transfers ownership of the contract to a new account (`newOwner`). Can only be called by the current owner."
      },
      "whitelistForSale(address[])": {
        "details": "Function to whitelist addresses. Can only be called by foundation address",
        "params": {
          "_accounts": "The array of addresses to whitelist"
        }
      },
      "withdraw()": {
        "details": "Withdrawal function. Can only be called after vesting period has elapsed"
      },
      "withdrawBNB()": {
        "details": "Function to withdraw BNB deposited during sale. Can only be called by the foundation"
      },
      "withdrawLeftOverTokens()": {
        "details": "Function to withdraw left-over tokens. Can only be called by the foundation and after the sale has ended."
      }
    },
    "version": 1
  },
  "userdoc": {
    "kind": "user",
    "methods": {},
    "version": 1
  }
}