{
  "contractName": "SeedSaleAndVesting",
  "abi": [
    {
      "inputs": [
        {
          "internalType": "address",
          "name": "paymentToken_",
          "type": "address"
        },
        {
          "internalType": "uint256",
          "name": "rate_",
          "type": "uint256"
        },
        {
          "internalType": "address payable",
          "name": "foundationAddress_",
          "type": "address"
        }
      ],
      "stateMutability": "nonpayable",
      "type": "constructor"
    },
    {
      "anonymous": false,
      "inputs": [
        {
          "indexed": true,
          "internalType": "address",
          "name": "previousOwner",
          "type": "address"
        },
        {
          "indexed": true,
          "internalType": "address",
          "name": "newOwner",
          "type": "address"
        }
      ],
      "name": "OwnershipTransferred",
      "type": "event"
    },
    {
      "anonymous": false,
      "inputs": [
        {
          "indexed": false,
          "internalType": "uint256",
          "name": "_newRate",
          "type": "uint256"
        }
      ],
      "name": "RateChanged",
      "type": "event"
    },
    {
      "anonymous": false,
      "inputs": [
        {
          "indexed": false,
          "internalType": "uint256",
          "name": "_extension",
          "type": "uint256"
        }
      ],
      "name": "TokenSaleExtended",
      "type": "event"
    },
    {
      "anonymous": false,
      "inputs": [
        {
          "indexed": false,
          "internalType": "uint256",
          "name": "_startTime",
          "type": "uint256"
        }
      ],
      "name": "TokenSaleStarted",
      "type": "event"
    },
    {
      "anonymous": false,
      "inputs": [
        {
          "indexed": false,
          "internalType": "address",
          "name": "_vestedBy",
          "type": "address"
        },
        {
          "indexed": false,
          "internalType": "uint256",
          "name": "_vested",
          "type": "uint256"
        },
        {
          "indexed": false,
          "internalType": "uint256",
          "name": "_totalVesting",
          "type": "uint256"
        }
      ],
      "name": "TokensBoughtAndVested",
      "type": "event"
    },
    {
      "anonymous": false,
      "inputs": [
        {
          "indexed": false,
          "internalType": "uint256",
          "name": "_amount",
          "type": "uint256"
        },
        {
          "indexed": false,
          "internalType": "uint256",
          "name": "_inVesting",
          "type": "uint256"
        }
      ],
      "name": "TokensWithdrawn",
      "type": "event"
    },
    {
      "inputs": [],
      "name": "owner",
      "outputs": [
        {
          "internalType": "address",
          "name": "",
          "type": "address"
        }
      ],
      "stateMutability": "view",
      "type": "function"
    },
    {
      "inputs": [],
      "name": "renounceOwnership",
      "outputs": [],
      "stateMutability": "nonpayable",
      "type": "function"
    },
    {
      "inputs": [
        {
          "internalType": "address",
          "name": "newOwner",
          "type": "address"
        }
      ],
      "name": "transferOwnership",
      "outputs": [],
      "stateMutability": "nonpayable",
      "type": "function"
    },
    {
      "stateMutability": "payable",
      "type": "receive"
    },
    {
      "inputs": [
        {
          "internalType": "uint256",
          "name": "_daysBeforeStart",
          "type": "uint256"
        },
        {
          "internalType": "uint256",
          "name": "_daysToLast",
          "type": "uint256"
        },
        {
          "internalType": "uint256",
          "name": "daysBeforeWithdrawal_",
          "type": "uint256"
        }
      ],
      "name": "startSale",
      "outputs": [],
      "stateMutability": "nonpayable",
      "type": "function"
    },
    {
      "inputs": [
        {
          "internalType": "uint256",
          "name": "_daysToExtendSaleBy",
          "type": "uint256"
        }
      ],
      "name": "extendSale",
      "outputs": [],
      "stateMutability": "nonpayable",
      "type": "function"
    },
    {
      "inputs": [],
      "name": "buyAndVest",
      "outputs": [],
      "stateMutability": "payable",
      "type": "function"
    },
    {
      "inputs": [],
      "name": "withdraw",
      "outputs": [],
      "stateMutability": "nonpayable",
      "type": "function"
    },
    {
      "inputs": [],
      "name": "withdrawBNB",
      "outputs": [],
      "stateMutability": "nonpayable",
      "type": "function"
    },
    {
      "inputs": [],
      "name": "withdrawLeftOverTokens",
      "outputs": [],
      "stateMutability": "nonpayable",
      "type": "function"
    },
    {
      "inputs": [
        {
          "internalType": "uint256",
          "name": "rate_",
          "type": "uint256"
        }
      ],
      "name": "setRate",
      "outputs": [],
      "stateMutability": "nonpayable",
      "type": "function"
    },
    {
      "inputs": [
        {
          "internalType": "address payable",
          "name": "foundationAddress_",
          "type": "address"
        }
      ],
      "name": "setFoundationAddress",
      "outputs": [],
      "stateMutability": "nonpayable",
      "type": "function"
    },
    {
      "inputs": [],
      "name": "getTimeBeforeStart",
      "outputs": [
        {
          "internalType": "uint256",
          "name": "",
          "type": "uint256"
        }
      ],
      "stateMutability": "view",
      "type": "function"
    },
    {
      "inputs": [],
      "name": "getRemainingTime",
      "outputs": [
        {
          "internalType": "uint256",
          "name": "",
          "type": "uint256"
        }
      ],
      "stateMutability": "view",
      "type": "function"
    },
    {
      "inputs": [],
      "name": "isInitialized",
      "outputs": [
        {
          "internalType": "bool",
          "name": "",
          "type": "bool"
        }
      ],
      "stateMutability": "view",
      "type": "function"
    },
    {
      "inputs": [
        {
          "internalType": "address",
          "name": "_vestor",
          "type": "address"
        }
      ],
      "name": "getVestingDetail",
      "outputs": [
        {
          "components": [
            {
              "internalType": "uint256",
              "name": "_withdrawalTime",
              "type": "uint256"
            },
            {
              "internalType": "uint256",
              "name": "_withdrawalAmount",
              "type": "uint256"
            },
            {
              "internalType": "uint256",
              "name": "_lockDuration",
              "type": "uint256"
            }
          ],
          "internalType": "struct SeedSaleAndVesting.VestingDetail",
          "name": "_detail",
          "type": "tuple"
        }
      ],
      "stateMutability": "view",
      "type": "function"
    },
    {
      "inputs": [],
      "name": "getRate",
      "outputs": [
        {
          "internalType": "uint256",
          "name": "",
          "type": "uint256"
        }
      ],
      "stateMutability": "view",
      "type": "function"
    },
    {
      "inputs": [],
      "name": "getTokensBought",
      "outputs": [
        {
          "internalType": "uint256",
          "name": "",
          "type": "uint256"
        }
      ],
      "stateMutability": "view",
      "type": "function"
    }
  ],
  "bytecode": "0x60806040523480156200001157600080fd5b50604051620029df380380620029df83398181016040528101906200003791906200029f565b620000576200004b620000e960201b60201c565b620000f160201b60201c565b82600160006101000a81548173ffffffffffffffffffffffffffffffffffffffff021916908373ffffffffffffffffffffffffffffffffffffffff1602179055508160038190555080600260006101000a81548173ffffffffffffffffffffffffffffffffffffffff021916908373ffffffffffffffffffffffffffffffffffffffff160217905550505050620002fb565b600033905090565b60008060009054906101000a900473ffffffffffffffffffffffffffffffffffffffff169050816000806101000a81548173ffffffffffffffffffffffffffffffffffffffff021916908373ffffffffffffffffffffffffffffffffffffffff1602179055508173ffffffffffffffffffffffffffffffffffffffff168173ffffffffffffffffffffffffffffffffffffffff167f8be0079c531659141344cd1fd0a4f28419497f9722a3daafe3b4186f6b6457e060405160405180910390a35050565b600080fd5b600073ffffffffffffffffffffffffffffffffffffffff82169050919050565b6000620001e782620001ba565b9050919050565b620001f981620001da565b81146200020557600080fd5b50565b6000815190506200021981620001ee565b92915050565b6000819050919050565b62000234816200021f565b81146200024057600080fd5b50565b600081519050620002548162000229565b92915050565b60006200026782620001ba565b9050919050565b62000279816200025a565b81146200028557600080fd5b50565b60008151905062000299816200026e565b92915050565b600080600060608486031215620002bb57620002ba620001b5565b5b6000620002cb8682870162000208565b9350506020620002de8682870162000243565b9250506040620002f18682870162000288565b9150509250925092565b6126d4806200030b6000396000f3fe6080604052600436106101025760003560e01c8063715018a611610095578063e3417f8d11610064578063e3417f8d146102ea578063efb98bcf14610301578063f2fde38b1461032c578063f41377ca14610355578063fc4764261461037e57610111565b8063715018a61461024057806378498818146102575780638da5cb5b14610282578063dfbe6b3d146102ad57610111565b8063392e53cd116100d1578063392e53cd146101a85780633ccfd60b146101d35780633dd5435d146101ea578063679aefce1461021557610111565b806304d742dc146101165780631d111d131461013f5780631f1886e41461015657806334fcf4371461017f57610111565b366101115761010f610388565b005b600080fd5b34801561012257600080fd5b5061013d60048036038101906101389190611750565b610639565b005b34801561014b57600080fd5b50610154610784565b005b34801561016257600080fd5b5061017d600480360381019061017891906117a3565b61088c565b005b34801561018b57600080fd5b506101a660048036038101906101a191906117a3565b610a03565b005b3480156101b457600080fd5b506101bd610b20565b6040516101ca91906117eb565b60405180910390f35b3480156101df57600080fd5b506101e8610b37565b005b3480156101f657600080fd5b506101ff610f0e565b60405161020c9190611815565b60405180910390f35b34801561022157600080fd5b5061022a610f3d565b6040516102379190611815565b60405180910390f35b34801561024c57600080fd5b50610255610f47565b005b34801561026357600080fd5b5061026c610fcf565b6040516102799190611815565b60405180910390f35b34801561028e57600080fd5b50610297610fd9565b6040516102a49190611871565b60405180910390f35b3480156102b957600080fd5b506102d460048036038101906102cf91906118b8565b611002565b6040516102e19190611936565b60405180910390f35b3480156102f657600080fd5b506102ff611079565b005b34801561030d57600080fd5b506103166113d1565b6040516103239190611815565b60405180910390f35b34801561033857600080fd5b50610353600480360381019061034e91906118b8565b611400565b005b34801561036157600080fd5b5061037c6004803603810190610377919061198f565b6114f8565b005b610386610388565b005b60004290506000600454141580156103a257506004548110155b6103e1576040517f08c379a00000000000000000000000000000000000000000000000000000000081526004016103d890611a3f565b60405180910390fd5b8060055411610425576040517f08c379a000000000000000000000000000000000000000000000000000000000815260040161041c90611aab565b60405180910390fd5b600061042f611628565b90506000600354670de0b6b3a76400003461044a9190611afa565b6104549190611b83565b9050600160009054906101000a900473ffffffffffffffffffffffffffffffffffffffff1673ffffffffffffffffffffffffffffffffffffffff166370a08231306040518263ffffffff1660e01b81526004016104b19190611871565b602060405180830381865afa1580156104ce573d6000803e3d6000fd5b505050506040513d601f19601f820116820180604052508101906104f29190611bc9565b816007546105009190611bf6565b1115610541576040517f08c379a000000000000000000000000000000000000000000000000000000000815260040161053890611cbe565b60405180910390fd5b6000600a60008473ffffffffffffffffffffffffffffffffffffffff1673ffffffffffffffffffffffffffffffffffffffff16815260200190815260200160002090508181600101546105949190611bf6565b8160010181905550600654426105aa9190611bf6565b81600001819055506301e13380426105c29190611bf6565b8160020181905550816007546105d89190611bf6565b600781905550816008546105ec9190611bf6565b6008819055507fbd4b74ee80c5ef4f18c6ab000b7e180212b09ac342e31772b17fe2224e1e0ccd83826001015460075460405161062b93929190611cde565b60405180910390a150505050565b600260009054906101000a900473ffffffffffffffffffffffffffffffffffffffff1673ffffffffffffffffffffffffffffffffffffffff1661067a611628565b73ffffffffffffffffffffffffffffffffffffffff16146106d0576040517f08c379a00000000000000000000000000000000000000000000000000000000081526004016106c790611d87565b60405180910390fd5b600042905062015180846106e49190611afa565b816106ef9190611bf6565b60048190555062015180836107049190611afa565b6004546107119190611bf6565b60058190555062015180826107269190611afa565b6006819055506001600960006101000a81548160ff0219169083151502179055507fa94faa77f36735e91d258de2eedff73d452f282d6aa66c55c2a06719e51d0f5b816040516107769190611815565b60405180910390a150505050565b600260009054906101000a900473ffffffffffffffffffffffffffffffffffffffff1673ffffffffffffffffffffffffffffffffffffffff166107c5611628565b73ffffffffffffffffffffffffffffffffffffffff161461081b576040517f08c379a000000000000000000000000000000000000000000000000000000000815260040161081290611d87565b60405180910390fd5b6000479050600260009054906101000a900473ffffffffffffffffffffffffffffffffffffffff1673ffffffffffffffffffffffffffffffffffffffff166108fc829081150290604051600060405180830381858888f19350505050158015610888573d6000803e3d6000fd5b5050565b600260009054906101000a900473ffffffffffffffffffffffffffffffffffffffff1673ffffffffffffffffffffffffffffffffffffffff166108cd611628565b73ffffffffffffffffffffffffffffffffffffffff1614610923576040517f08c379a000000000000000000000000000000000000000000000000000000000815260040161091a90611d87565b60405180910390fd5b60006004541415801561093857506004544210155b610977576040517f08c379a000000000000000000000000000000000000000000000000000000000815260040161096e90611e3f565b60405180910390fd5b4260055410156109a65762015180816109909190611afa565b4261099b9190611bf6565b6005819055506109c9565b62015180816109b59190611afa565b6005546109c29190611bf6565b6005819055505b7f057ef55123d60d20f8e2ebda78fcfd24dfcad0647ca443a91e71941deb00bc92816040516109f89190611815565b60405180910390a150565b600260009054906101000a900473ffffffffffffffffffffffffffffffffffffffff1673ffffffffffffffffffffffffffffffffffffffff16610a44611628565b73ffffffffffffffffffffffffffffffffffffffff1614610a9a576040517f08c379a0000000000000000000000000000000000000000000000000000000008152600401610a9190611d87565b60405180910390fd5b60008111610add576040517f08c379a0000000000000000000000000000000000000000000000000000000008152600401610ad490611ed1565b60405180910390fd5b806003819055507f595a30f13a69b616c4d568e2a2b7875fdfe86e4300a049953c76ee278f8f3f10600354604051610b159190611815565b60405180910390a150565b6000600960009054906101000a900460ff16905090565b6000624f1a00600554610b4a9190611bf6565b9050804211610b8e576040517f08c379a0000000000000000000000000000000000000000000000000000000008152600401610b8590611f63565b60405180910390fd5b6000600a6000610b9c611628565b73ffffffffffffffffffffffffffffffffffffffff1673ffffffffffffffffffffffffffffffffffffffff168152602001908152602001600020905060008082600001541415610c21576040517f08c379a0000000000000000000000000000000000000000000000000000000008152600401610c1890611ff5565b60405180910390fd5b81600201544210610c385781600101549050610c58565b606460058360010154610c4b9190611afa565b610c559190611b83565b90505b8160000154421015610c9f576040517f08c379a0000000000000000000000000000000000000000000000000000000008152600401610c9690612087565b60405180910390fd5b80600160009054906101000a900473ffffffffffffffffffffffffffffffffffffffff1673ffffffffffffffffffffffffffffffffffffffff166370a08231306040518263ffffffff1660e01b8152600401610cfb9190611871565b602060405180830381865afa158015610d18573d6000803e3d6000fd5b505050506040513d601f19601f82011682018060405250810190610d3c9190611bc9565b1015610d7d576040517f08c379a0000000000000000000000000000000000000000000000000000000008152600401610d749061213f565b60405180910390fd5b600160009054906101000a900473ffffffffffffffffffffffffffffffffffffffff1673ffffffffffffffffffffffffffffffffffffffff1663a9059cbb610dc3611628565b836040518363ffffffff1660e01b8152600401610de192919061215f565b6020604051808303816000875af1158015610e00573d6000803e3d6000fd5b505050506040513d601f19601f82011682018060405250810190610e2491906121b4565b610e63576040517f08c379a0000000000000000000000000000000000000000000000000000000008152600401610e5a90612253565b60405180910390fd5b808260010154610e739190612273565b826001018190555081600201544210610e8d576000610e9c565b60065442610e9b9190611bf6565b5b826000018190555081600201544210610eba57600082600201819055505b80600754610ec89190612273565b6007819055507f66b83f1531e8e33a4c404458c73c34e03a1233541a8bbe6127f85660b414d3c781600754604051610f019291906122a7565b60405180910390a1505050565b600080429050806004541015610f28576000915050610f3a565b80600454610f369190612273565b9150505b90565b6000600354905090565b610f4f611628565b73ffffffffffffffffffffffffffffffffffffffff16610f6d610fd9565b73ffffffffffffffffffffffffffffffffffffffff1614610fc3576040517f08c379a0000000000000000000000000000000000000000000000000000000008152600401610fba9061231c565b60405180910390fd5b610fcd6000611630565b565b6000600854905090565b60008060009054906101000a900473ffffffffffffffffffffffffffffffffffffffff16905090565b61100a6116f4565b600a60008373ffffffffffffffffffffffffffffffffffffffff1673ffffffffffffffffffffffffffffffffffffffff16815260200190815260200160002060405180606001604052908160008201548152602001600182015481526020016002820154815250509050919050565b600260009054906101000a900473ffffffffffffffffffffffffffffffffffffffff1673ffffffffffffffffffffffffffffffffffffffff166110ba611628565b73ffffffffffffffffffffffffffffffffffffffff1614611110576040517f08c379a000000000000000000000000000000000000000000000000000000000815260040161110790611d87565b60405180910390fd5b600554421015611155576040517f08c379a000000000000000000000000000000000000000000000000000000000815260040161114c906123ae565b60405180910390fd5b6000600160009054906101000a900473ffffffffffffffffffffffffffffffffffffffff1673ffffffffffffffffffffffffffffffffffffffff166370a08231306040518263ffffffff1660e01b81526004016111b29190611871565b602060405180830381865afa1580156111cf573d6000803e3d6000fd5b505050506040513d601f19601f820116820180604052508101906111f39190611bc9565b11611233576040517f08c379a000000000000000000000000000000000000000000000000000000000815260040161122a90612440565b60405180910390fd5b600160009054906101000a900473ffffffffffffffffffffffffffffffffffffffff1673ffffffffffffffffffffffffffffffffffffffff1663a9059cbb600260009054906101000a900473ffffffffffffffffffffffffffffffffffffffff16600160009054906101000a900473ffffffffffffffffffffffffffffffffffffffff1673ffffffffffffffffffffffffffffffffffffffff166370a08231306040518263ffffffff1660e01b81526004016112ef9190611871565b602060405180830381865afa15801561130c573d6000803e3d6000fd5b505050506040513d601f19601f820116820180604052508101906113309190611bc9565b6040518363ffffffff1660e01b815260040161134d9291906124bf565b6020604051808303816000875af115801561136c573d6000803e3d6000fd5b505050506040513d601f19601f8201168201806040525081019061139091906121b4565b6113cf576040517f08c379a00000000000000000000000000000000000000000000000000000000081526004016113c69061255a565b60405180910390fd5b565b6000804290508060055410156113eb5760009150506113fd565b806005546113f99190612273565b9150505b90565b611408611628565b73ffffffffffffffffffffffffffffffffffffffff16611426610fd9565b73ffffffffffffffffffffffffffffffffffffffff161461147c576040517f08c379a00000000000000000000000000000000000000000000000000000000081526004016114739061231c565b60405180910390fd5b600073ffffffffffffffffffffffffffffffffffffffff168173ffffffffffffffffffffffffffffffffffffffff1614156114ec576040517f08c379a00000000000000000000000000000000000000000000000000000000081526004016114e3906125ec565b60405180910390fd5b6114f581611630565b50565b611500611628565b73ffffffffffffffffffffffffffffffffffffffff1661151e610fd9565b73ffffffffffffffffffffffffffffffffffffffff1614611574576040517f08c379a000000000000000000000000000000000000000000000000000000000815260040161156b9061231c565b60405180910390fd5b600073ffffffffffffffffffffffffffffffffffffffff168173ffffffffffffffffffffffffffffffffffffffff1614156115e4576040517f08c379a00000000000000000000000000000000000000000000000000000000081526004016115db9061267e565b60405180910390fd5b80600260006101000a81548173ffffffffffffffffffffffffffffffffffffffff021916908373ffffffffffffffffffffffffffffffffffffffff16021790555050565b600033905090565b60008060009054906101000a900473ffffffffffffffffffffffffffffffffffffffff169050816000806101000a81548173ffffffffffffffffffffffffffffffffffffffff021916908373ffffffffffffffffffffffffffffffffffffffff1602179055508173ffffffffffffffffffffffffffffffffffffffff168173ffffffffffffffffffffffffffffffffffffffff167f8be0079c531659141344cd1fd0a4f28419497f9722a3daafe3b4186f6b6457e060405160405180910390a35050565b60405180606001604052806000815260200160008152602001600081525090565b600080fd5b6000819050919050565b61172d8161171a565b811461173857600080fd5b50565b60008135905061174a81611724565b92915050565b60008060006060848603121561176957611768611715565b5b60006117778682870161173b565b93505060206117888682870161173b565b92505060406117998682870161173b565b9150509250925092565b6000602082840312156117b9576117b8611715565b5b60006117c78482850161173b565b91505092915050565b60008115159050919050565b6117e5816117d0565b82525050565b600060208201905061180060008301846117dc565b92915050565b61180f8161171a565b82525050565b600060208201905061182a6000830184611806565b92915050565b600073ffffffffffffffffffffffffffffffffffffffff82169050919050565b600061185b82611830565b9050919050565b61186b81611850565b82525050565b60006020820190506118866000830184611862565b92915050565b61189581611850565b81146118a057600080fd5b50565b6000813590506118b28161188c565b92915050565b6000602082840312156118ce576118cd611715565b5b60006118dc848285016118a3565b91505092915050565b6118ee8161171a565b82525050565b60608201600082015161190a60008501826118e5565b50602082015161191d60208501826118e5565b50604082015161193060408501826118e5565b50505050565b600060608201905061194b60008301846118f4565b92915050565b600061195c82611830565b9050919050565b61196c81611951565b811461197757600080fd5b50565b60008135905061198981611963565b92915050565b6000602082840312156119a5576119a4611715565b5b60006119b38482850161197a565b91505092915050565b600082825260208201905092915050565b7f56654669546f6b656e566573743a2053616c65206e6f7420737461727465642060008201527f7965740000000000000000000000000000000000000000000000000000000000602082015250565b6000611a296023836119bc565b9150611a34826119cd565b604082019050919050565b60006020820190508181036000830152611a5881611a1c565b9050919050565b7f56654669546f6b656e566573743a2053616c652068617320656e646564000000600082015250565b6000611a95601d836119bc565b9150611aa082611a5f565b602082019050919050565b60006020820190508181036000830152611ac481611a88565b9050919050565b7f4e487b7100000000000000000000000000000000000000000000000000000000600052601160045260246000fd5b6000611b058261171a565b9150611b108361171a565b9250817fffffffffffffffffffffffffffffffffffffffffffffffffffffffffffffffff0483118215151615611b4957611b48611acb565b5b828202905092915050565b7f4e487b7100000000000000000000000000000000000000000000000000000000600052601260045260246000fd5b6000611b8e8261171a565b9150611b998361171a565b925082611ba957611ba8611b54565b5b828204905092915050565b600081519050611bc381611724565b92915050565b600060208284031215611bdf57611bde611715565b5b6000611bed84828501611bb4565b91505092915050565b6000611c018261171a565b9150611c0c8361171a565b9250827fffffffffffffffffffffffffffffffffffffffffffffffffffffffffffffffff03821115611c4157611c40611acb565b5b828201905092915050565b7f56654669546f6b656e566573743a2043616e6e6f742062757920616e6420766560008201527f737420617320616c6c6f636174696f6e206973206e6f7420656e6f7567680000602082015250565b6000611ca8603e836119bc565b9150611cb382611c4c565b604082019050919050565b60006020820190508181036000830152611cd781611c9b565b9050919050565b6000606082019050611cf36000830186611862565b611d006020830185611806565b611d0d6040830184611806565b949350505050565b7f56654669546f6b656e566573743a204f6e6c7920666f756e646174696f6e206160008201527f6464726573732063616e2063616c6c20746869732066756e6374696f6e000000602082015250565b6000611d71603d836119bc565b9150611d7c82611d15565b604082019050919050565b60006020820190508181036000830152611da081611d64565b9050919050565b7f56654669546f6b656e566573743a2053616c65206d757374206265207374617260008201527f746564206265666f72652074686520656e6420646174652063616e206265206560208201527f7874656e64656400000000000000000000000000000000000000000000000000604082015250565b6000611e296047836119bc565b9150611e3482611da7565b606082019050919050565b60006020820190508181036000830152611e5881611e1c565b9050919050565b7f56654669546f6b656e566573743a2052617465206d757374206265206772656160008201527f746572207468616e203000000000000000000000000000000000000000000000602082015250565b6000611ebb602a836119bc565b9150611ec682611e5f565b604082019050919050565b60006020820190508181036000830152611eea81611eae565b9050919050565b7f56654669546f6b656e566573743a20546f6b656e207769746864726177616c2060008201527f6265666f72652032206d6f6e746820636c696666000000000000000000000000602082015250565b6000611f4d6034836119bc565b9150611f5882611ef1565b604082019050919050565b60006020820190508181036000830152611f7c81611f40565b9050919050565b7f56654669546f6b656e566573743a205769746864726177616c206e6f7420706f60008201527f737369626c650000000000000000000000000000000000000000000000000000602082015250565b6000611fdf6026836119bc565b9150611fea82611f83565b604082019050919050565b6000602082019050818103600083015261200e81611fd2565b9050919050565b7f56654669546f6b656e566573743a204974206973206e6f742074696d6520666f60008201527f72207769746864726177616c0000000000000000000000000000000000000000602082015250565b6000612071602c836119bc565b915061207c82612015565b604082019050919050565b600060208201905081810360008301526120a081612064565b9050919050565b7f56654669546f6b656e566573743a204e6f7420656e6f75676820746f6b656e7360008201527f20746f2073656c6c2e20506c65617365207265616368206f757420746f20746860208201527f6520666f756e646174696f6e20636f6e6365726e696e67207468697300000000604082015250565b6000612129605c836119bc565b9150612134826120a7565b606082019050919050565b600060208201905081810360008301526121588161211c565b9050919050565b60006040820190506121746000830185611862565b6121816020830184611806565b9392505050565b612191816117d0565b811461219c57600080fd5b50565b6000815190506121ae81612188565b92915050565b6000602082840312156121ca576121c9611715565b5b60006121d88482850161219f565b91505092915050565b7f56654669546f6b656e566573743a20436f756c64206e6f74207472616e73666560008201527f7220746f6b656e73000000000000000000000000000000000000000000000000602082015250565b600061223d6028836119bc565b9150612248826121e1565b604082019050919050565b6000602082019050818103600083015261226c81612230565b9050919050565b600061227e8261171a565b91506122898361171a565b92508282101561229c5761229b611acb565b5b828203905092915050565b60006040820190506122bc6000830185611806565b6122c96020830184611806565b9392505050565b7f4f776e61626c653a2063616c6c6572206973206e6f7420746865206f776e6572600082015250565b60006123066020836119bc565b9150612311826122d0565b602082019050919050565b60006020820190508181036000830152612335816122f9565b9050919050565b7f56654669546f6b656e566573743a204c656674206f76657220746f6b656e732060008201527f63616e206f6e6c792062652077697468647261776e2061667465722073616c65602082015250565b60006123986040836119bc565b91506123a38261233c565b604082019050919050565b600060208201905081810360008301526123c78161238b565b9050919050565b7f56654669546f6b656e566573743a204e6f206c656674206f76657220746f6b6560008201527f6e7320746f207769746864726177000000000000000000000000000000000000602082015250565b600061242a602e836119bc565b9150612435826123ce565b604082019050919050565b600060208201905081810360008301526124598161241d565b9050919050565b6000819050919050565b600061248561248061247b84611830565b612460565b611830565b9050919050565b60006124978261246a565b9050919050565b60006124a98261248c565b9050919050565b6124b98161249e565b82525050565b60006040820190506124d460008301856124b0565b6124e16020830184611806565b9392505050565b7f56654669546f6b656e566573743a20436f756c64206e6f74207769746864726160008201527f77206c656674206f76657220746f6b656e730000000000000000000000000000602082015250565b60006125446032836119bc565b915061254f826124e8565b604082019050919050565b6000602082019050818103600083015261257381612537565b9050919050565b7f4f776e61626c653a206e6577206f776e657220697320746865207a65726f206160008201527f6464726573730000000000000000000000000000000000000000000000000000602082015250565b60006125d66026836119bc565b91506125e18261257a565b604082019050919050565b60006020820190508181036000830152612605816125c9565b9050919050565b7f56654669546f6b656e566573743a20536574207a65726f20616464726573732060008201527f617320666f756e646174696f6e20616464726573730000000000000000000000602082015250565b60006126686035836119bc565b91506126738261260c565b604082019050919050565b600060208201905081810360008301526126978161265b565b905091905056fea26469706673582212204984bcafdba1016f45bcc386592027212cfa32049ed380d20e8fd1769a7dfe9864736f6c634300080a0033",
  "immutableReferences": {},
  "source": "pragma solidity ^0.8.0;\n\nimport '@openzeppelin/contracts/token/ERC20/IERC20.sol';\nimport '@openzeppelin/contracts/access/Ownable.sol';\nimport '@openzeppelin/contracts/utils/Context.sol';\n\ncontract SeedSaleAndVesting is Context, Ownable {\n  struct VestingDetail {\n    uint256 _withdrawalTime;\n    uint256 _withdrawalAmount;\n    uint256 _lockDuration;\n  }\n\n  IERC20 _paymentToken;\n  address payable _foundationAddress;\n  uint256 _rate;\n  uint256 _startTime;\n  uint256 _endTime;\n  uint256 _daysBeforeWithdrawal;\n  uint256 _totalVested;\n  uint256 _tokensBought;\n  bool _initialized;\n\n  mapping(address => VestingDetail) _vestingDetails;\n\n  modifier onlyFoundationAddress() {\n    require(\n      _msgSender() == _foundationAddress,\n      'VeFiTokenVest: Only foundation address can call this function'\n    );\n    _;\n  }\n\n  event TokenSaleStarted(uint256 _startTime);\n  event TokenSaleExtended(uint256 _extension);\n  event TokensBoughtAndVested(\n    address _vestedBy,\n    uint256 _vested,\n    uint256 _totalVesting\n  );\n  event TokensWithdrawn(uint256 _amount, uint256 _inVesting);\n  event RateChanged(uint256 _newRate);\n\n  constructor(\n    address paymentToken_,\n    uint256 rate_,\n    address payable foundationAddress_\n  ) Ownable() {\n    _paymentToken = IERC20(paymentToken_);\n    _rate = rate_;\n    _foundationAddress = foundationAddress_;\n  }\n\n  /** @dev Start the token sale. Can only be called by the foundation\n   *  @param _daysToLast The number of days the token sale should last\n   *  @param daysBeforeWithdrawal_ The number of days before tokens can be withdrawn after vesting\n   */\n  function startSale(\n    uint256 _daysBeforeStart,\n    uint256 _daysToLast,\n    uint256 daysBeforeWithdrawal_\n  ) external onlyFoundationAddress {\n    uint256 _time = block.timestamp;\n    _startTime = _time + (_daysBeforeStart * 1 days);\n    _endTime = _startTime + (_daysToLast * 1 days);\n    _daysBeforeWithdrawal = (daysBeforeWithdrawal_ * 1 days);\n    _initialized = true;\n    emit TokenSaleStarted(_time);\n  }\n\n  /** @dev Extend the token sale\n   *  @param _daysToExtendSaleBy The number of days to extend the end date by\n   */\n  function extendSale(uint256 _daysToExtendSaleBy)\n    external\n    onlyFoundationAddress\n  {\n    require(\n      _startTime != 0 && block.timestamp >= _startTime,\n      'VeFiTokenVest: Sale must be started before the end date can be extended'\n    );\n\n    if (_endTime < block.timestamp)\n      _endTime = block.timestamp + (_daysToExtendSaleBy * 1 days);\n    else _endTime = _endTime + (_daysToExtendSaleBy * 1 days);\n\n    emit TokenSaleExtended(_daysToExtendSaleBy);\n  }\n\n  /** @dev Function to be called by intending vestor. Amount of BNB to spend is sent to this function\n   */\n  function buyAndVest() public payable {\n    uint256 _currentTime = block.timestamp;\n\n    require(\n      _startTime != 0 && _currentTime >= _startTime,\n      'VeFiTokenVest: Sale not started yet'\n    );\n    require(_endTime > _currentTime, 'VeFiTokenVest: Sale has ended');\n\n    address _vestor = _msgSender();\n    uint256 _vestable = (msg.value * 10**18) / _rate;\n\n    require(\n      (_totalVested + _vestable) <= _paymentToken.balanceOf(address(this)),\n      'VeFiTokenVest: Cannot buy and vest as allocation is not enough'\n    );\n\n    VestingDetail storage vestingDetail = _vestingDetails[_vestor];\n    vestingDetail._withdrawalAmount =\n      vestingDetail._withdrawalAmount +\n      _vestable;\n    vestingDetail._withdrawalTime = block.timestamp + _daysBeforeWithdrawal;\n    vestingDetail._lockDuration = block.timestamp + 365 days;\n    _totalVested = _totalVested + _vestable;\n    _tokensBought = _tokensBought + _vestable;\n\n    emit TokensBoughtAndVested(\n      _vestor,\n      vestingDetail._withdrawalAmount,\n      _totalVested\n    );\n  }\n\n  /** @dev Withdrawal function. Can only be called after vesting period has elapsed\n   */\n  function withdraw() external {\n    uint256 _cliff = _endTime + (60 * 1 days);\n    require(\n      block.timestamp > _cliff,\n      'VeFiTokenVest: Token withdrawal before 2 month cliff'\n    );\n    VestingDetail storage vestingDetail = _vestingDetails[_msgSender()];\n    uint256 _withdrawable;\n\n    require(\n      vestingDetail._withdrawalTime != 0,\n      'VeFiTokenVest: Withdrawal not possible'\n    );\n\n    if (block.timestamp >= vestingDetail._lockDuration) {\n      _withdrawable = vestingDetail._withdrawalAmount;\n    } else {\n      _withdrawable = (vestingDetail._withdrawalAmount * 5) / 100;\n    }\n\n    require(\n      (block.timestamp >= vestingDetail._withdrawalTime),\n      'VeFiTokenVest: It is not time for withdrawal'\n    );\n    require(\n      _paymentToken.balanceOf(address(this)) >= _withdrawable,\n      'VeFiTokenVest: Not enough tokens to sell. Please reach out to the foundation concerning this'\n    );\n    require(\n      _paymentToken.transfer(_msgSender(), _withdrawable),\n      'VeFiTokenVest: Could not transfer tokens'\n    );\n\n    vestingDetail._withdrawalAmount =\n      vestingDetail._withdrawalAmount -\n      _withdrawable;\n    vestingDetail._withdrawalTime = block.timestamp <\n      vestingDetail._lockDuration\n      ? block.timestamp + _daysBeforeWithdrawal\n      : 0;\n\n    if (block.timestamp >= vestingDetail._lockDuration)\n      vestingDetail._lockDuration = 0;\n\n    _totalVested = _totalVested - _withdrawable;\n\n    emit TokensWithdrawn(_withdrawable, _totalVested);\n  }\n\n  /** @dev Function to withdraw BNB deposited during sale. Can only be called by the foundation\n   */\n  function withdrawBNB() external onlyFoundationAddress {\n    uint256 _balance = address(this).balance;\n    _foundationAddress.transfer(_balance);\n  }\n\n  /** @dev Function to withdraw left-over tokens. Can only be called by the foundation and after the sale has ended.\n   */\n  function withdrawLeftOverTokens() external onlyFoundationAddress {\n    require(\n      block.timestamp >= _endTime,\n      'VeFiTokenVest: Left over tokens can only be withdrawn after sale'\n    );\n    require(\n      _paymentToken.balanceOf(address(this)) > 0,\n      'VeFiTokenVest: No left over tokens to withdraw'\n    );\n    require(\n      _paymentToken.transfer(\n        _foundationAddress,\n        _paymentToken.balanceOf(address(this))\n      ),\n      'VeFiTokenVest: Could not withdraw left over tokens'\n    );\n  }\n\n  /** @dev Set the rate for the sale\n   *  @param rate_ The rate to be set\n   */\n  function setRate(uint256 rate_) external onlyFoundationAddress {\n    require(rate_ > 0, 'VeFiTokenVest: Rate must be greater than 0');\n    _rate = rate_;\n\n    emit RateChanged(_rate);\n  }\n\n  /** @dev Set foundation address. Can only be called by contract owner\n   *  @param foundationAddress_ address to set\n   */\n  function setFoundationAddress(address payable foundationAddress_)\n    external\n    onlyOwner\n  {\n    require(\n      foundationAddress_ != address(0),\n      'VeFiTokenVest: Set zero address as foundation address'\n    );\n    _foundationAddress = foundationAddress_;\n  }\n\n  /** @dev Get time remaining before sale starts\n   */\n  function getTimeBeforeStart() public view returns (uint256) {\n    uint256 _currentTime = block.timestamp;\n\n    if (_startTime < _currentTime) return 0;\n\n    return _startTime - _currentTime;\n  }\n\n  /** @dev Get time remaining before sale ends\n   */\n  function getRemainingTime() public view returns (uint256) {\n    uint256 _currentTime = block.timestamp;\n\n    if (_endTime < _currentTime) return 0;\n\n    return _endTime - _currentTime;\n  }\n\n  /** @dev Returns a boolean value indication whether the counter has been started or not\n   */\n  function isInitialized() external view returns (bool) {\n    return _initialized;\n  }\n\n  /** @dev Get vesting detail of address\n   *  @param _vestor Address for which to view vesting detail\n   */\n  function getVestingDetail(address _vestor)\n    external\n    view\n    returns (VestingDetail memory _detail)\n  {\n    return _vestingDetails[_vestor];\n  }\n\n  /** @dev Returns the presently set rate\n   */\n  function getRate() external view returns (uint256) {\n    return _rate;\n  }\n\n  /** @dev Returns the amount of tokens bought\n   */\n  function getTokensBought() external view returns (uint256) {\n    return _tokensBought;\n  }\n\n  receive() external payable {\n    buyAndVest();\n  }\n}\n",
  "sourcePath": "/home/kingsley/Code-Projects/Token-Vesting/contracts/SeedSaleAndVesting.sol",
  "compiler": {
    "name": "solc",
    "version": "0.8.10+commit.fc410830.Emscripten.clang"
  },
  "schemaVersion": "3.4.3",
  "updatedAt": "2022-01-11T01:53:34.659Z",
  "devdoc": {
    "kind": "dev",
    "methods": {
      "buyAndVest()": {
        "details": "Function to be called by intending vestor. Amount of BNB to spend is sent to this function"
      },
      "extendSale(uint256)": {
        "details": "Extend the token sale",
        "params": {
          "_daysToExtendSaleBy": "The number of days to extend the end date by"
        }
      },
      "getRate()": {
        "details": "Returns the presently set rate"
      },
      "getRemainingTime()": {
        "details": "Get time remaining before sale ends"
      },
      "getTimeBeforeStart()": {
        "details": "Get time remaining before sale starts"
      },
      "getTokensBought()": {
        "details": "Returns the amount of tokens bought"
      },
      "getVestingDetail(address)": {
        "details": "Get vesting detail of address",
        "params": {
          "_vestor": "Address for which to view vesting detail"
        }
      },
      "isInitialized()": {
        "details": "Returns a boolean value indication whether the counter has been started or not"
      },
      "owner()": {
        "details": "Returns the address of the current owner."
      },
      "renounceOwnership()": {
        "details": "Leaves the contract without owner. It will not be possible to call `onlyOwner` functions anymore. Can only be called by the current owner. NOTE: Renouncing ownership will leave the contract without an owner, thereby removing any functionality that is only available to the owner."
      },
      "setFoundationAddress(address)": {
        "details": "Set foundation address. Can only be called by contract owner",
        "params": {
          "foundationAddress_": "address to set"
        }
      },
      "setRate(uint256)": {
        "details": "Set the rate for the sale",
        "params": {
          "rate_": "The rate to be set"
        }
      },
      "startSale(uint256,uint256,uint256)": {
        "details": "Start the token sale. Can only be called by the foundation",
        "params": {
          "_daysToLast": "The number of days the token sale should last",
          "daysBeforeWithdrawal_": "The number of days before tokens can be withdrawn after vesting"
        }
      },
      "transferOwnership(address)": {
        "details": "Transfers ownership of the contract to a new account (`newOwner`). Can only be called by the current owner."
      },
      "withdraw()": {
        "details": "Withdrawal function. Can only be called after vesting period has elapsed"
      },
      "withdrawBNB()": {
        "details": "Function to withdraw BNB deposited during sale. Can only be called by the foundation"
      },
      "withdrawLeftOverTokens()": {
        "details": "Function to withdraw left-over tokens. Can only be called by the foundation and after the sale has ended."
      }
    },
    "version": 1
  },
  "userdoc": {
    "kind": "user",
    "methods": {},
    "version": 1
  }
}